:100000000C945B010C948C010C948C010C948C016D
:100010000C948C010C948C010C948C010C948C012C
:100020000C948C010C948C010C948C010C948C011C
:100030000C948C010C948C010C948C010C948C010C
:100040000C948C010C948C010C948C010C948C01FC
:100050000C948C010C948C010C948C010C94B309BD
:100060000C948C010C94270A0C94FD090C948C01BF
:100070000C948C010C948C010C948C010C948C01CC
:100080000C948C010C948C010C948C010C948C01BC
:100090000C948C010C948C010C948C010C948C01AC
:1000A0000C948C010C948C010C948C010C948C019C
:1000B0000C948C010C948C010C948C010C948C018C
:1000C0000C948C010C948C010C948C010C948C017C
:1000D0000C948C010C948C010C948C010C948C016C
:1000E0000C948C010C9449050C9417050C945D0A32
:1000F0000C944B040C94DB030C94ED010C94D9018B
:100100000C94A4040C9425030C9485060C942E05E1
:100110000C9456030C945C050C9448030C94DD0677
:100120000C940A070C9458060C9434030C94BA01EE
:100130000C94EC010C94C7010C94D1010C94AC010B
:100140000C94BE010C94B6010C94E7010C94DD05EF
:100150000C94A1050C94CB010C947C040C94210606
:100160000C94E3010C94C1010C9469040C94F1010A
:100170000C94D5010C9484050C94DF010C948E032F
:100180000C94F8020C94B2010C94D6040C94FC0468
:100190000C94AE0600002100240027002A002D0048
:1001A0003000330001010000040107010A010000D2
:1001B0002200250028002B002E003100340002010F
:1001C0000000050108010B010000200023002600AB
:1001D00029002C002F00320000010000030106015D
:1001E00009010505050507050808080802020202BD
:1001F0000A0A0808040404040101010101010101C3
:100200000303030303030303040707070C0C0C0C8D
:100210000C0C0C0C02020202060606060606060676
:100220000B0B0B0B0B0B0B0B010210202008081003
:100230002040102040800201020108040201010256
:10024000040810204080804020100804020180042F
:10025000020180402010080402010804020101028A
:100260000408102040800102040810204080000093
:100270000A0B02090C0D0E08070304010000000020
:10028000000000000000000000000000000000006E
:10029000000000000000000000001211100000002B
:1002A000000000000000000000000000000000004E
:1002B000000000005D0A11241FBECFEFD1E2DEBFB7
:1002C000CDBF00E00CBF18E0A0E0B2E0ECE3F3E348
:1002D00000E00BBF02C007900D92AE36B107D9F710
:1002E0002AE0AEE6B8E001C01D92AA3AB207E1F7F3
:1002F00011E0CBE5D1E000E006C021970109802F95
:10030000FE010E946A17CA35D10780E00807A9F7E5
:100310000E940B0B0C949C190C94000081508231AC
:1003200008F05AC0E82FF0E08827E656FE4F8F4FBE
:100330000C946A17BA01BE01AC01B201B601EC011E
:10034000C101C701CB01D101D501D901DF01E30111
:10035000EC01E701ED01F101809180008F7780933E
:1003600080000895809180008F7DF9CF809180007A
:10037000877FF5CF84B58F7784BD089584B58F7D51
:10038000FBCF8091B0008F778093B000089580916B
:10039000B0008F7DF9CF809190008F77809390008F
:1003A0000895809190008F7DF9CF80919000877F94
:1003B000F5CF8091A0008F778093A0000895809161
:1003C000A0008F7DF9CF8091A000877FF5CF80912D
:1003D00020018F77809320010895809120018F7DE7
:1003E000F9CF80912001877FF5CFCF93DF93282F1E
:1003F00030E0F901E259FD4F8491F901E85DFD4FCC
:10040000D491F901EE51FE4FC491CC23A1F081119A
:100410000E948E01EC2FF0E0EE0FFF1FE853FE4F1D
:10042000A591B491EC91ED2381E090E009F480E096
:10043000DF91CF91089580E090E0FACF1F93CF93A2
:10044000DF93282F30E0F901E259FD4F8491F90143
:10045000E85DFD4FD491F901EE51FE4FC491CC23DC
:10046000A9F0162F81110E948E01EC2FF0E0EE0F03
:10047000FF1FE255FE4FA591B4918FB7F894EC9110
:10048000111108C0D095DE23DC938FBFDF91CF918F
:100490001F910895DE2BF8CFCF93DF9390E0FC01FE
:1004A000E85DFD4F24918E519E4FFC01849188237D
:1004B000D1F090E0880F991FFC01EC56FE4FA591FA
:1004C000B491FC01E255FE4FC591D49161110EC06B
:1004D0009FB7F8948C91E22FE0958E238C9328811E
:1004E000E223E8839FBFDF91CF9108958FB7F894FF
:1004F000EC91E22BEC938FBFF6CF90917B00977F2E
:1005000090937B008653806480937C0080917A0076
:10051000806480937A0080917A0086FDFCCF809180
:1005200078009091790008953FB7F8948091AD09D3
:100530009091AE09A091AF09B091B00926B5A89BE2
:1005400005C02F3F19F00196A11DB11D3FBFBA2F65
:10055000A92F982F8827BC01CD01620F711D811D25
:10056000911D42E0660F771F881F991F4A95D1F7AA
:1005700008958F929F92AF92BF92CF92DF92EF92A7
:10058000FF926B017C010E9494024B015C01C1143B
:10059000D104E104F104B9F00E94940268197909C8
:1005A0008A099B09683E73408105910580F321E02B
:1005B000C21AD108E108F10888EE880E83E0981E7F
:1005C000A11CB11CE4CFFF90EF90DF90CF90BF90C3
:1005D000AF909F908F9008952FB7F8946091A909DC
:1005E0007091AA098091AB099091AC092FBF089531
:1005F000AF92BF92CF92DF92EF92FF920F931F9331
:10060000CF93DF936C017B018B01040F151FEB016E
:100610005E01AE18BF08C017D10759F06991D60125
:10062000ED91FC910190F081E02DC6011995892B87
:1006300079F7C501DF91CF911F910F91FF90EF9056
:10064000DF90CF90BF90AF900895FC01538D448D03
:10065000252F30E0842F90E0821B930B541710F06D
:10066000CF96089501970895FC01918D828D98177A
:1006700061F0A28DAE0FBF2FB11D5D968C91928D52
:100680009F5F9F73928F90E008958FEF9FEF089583
:10069000FC01918D828D981731F0828DE80FF11D4C
:1006A000858D90E008958FEF9FEF0895FC01918D67
:1006B000228D892F90E0805C9F4F821B91098F7360
:1006C0009927089581EB99E00E94560321E0892B38
:1006D00009F420E0822F0895FC01A48DA80FB92F02
:1006E000B11DA35ABF4F2C91848D90E001968F735A
:1006F0009927848FA689B7892C93A089B1898C9179
:10070000837080648C93938D848D981306C00288C7
:10071000F389E02D80818F7D80830895EF92FF9291
:100720000F931F93CF93DF93EC0181E0888F9B8D14
:100730008C8D98131AC0E889F989808185FF15C0CE
:100740009FB7F894EE89FF896083E889F9898081F1
:100750008370806480839FBF81E090E0DF91CF91C0
:100760001F910F91FF90EF900895F62E0B8D10E0E2
:100770000F5F1F4F0F731127E02E8C8D8E110CC051
:100780000FB607FCFACFE889F989808185FFF5CF9C
:10079000CE010E946C03F1CFEB8DEC0FFD2FF11D0C
:1007A000E35AFF4FF0829FB7F8940B8FEA89FB89D9
:1007B00080818062CFCFCF93DF93EC01888D882337
:1007C000B9F0AA89BB89E889F9898C9185FD03C0B4
:1007D000808186FD0DC00FB607FCF7CF8C9185FF99
:1007E000F2CF808185FFEDCFCE010E946C03E9CF6F
:1007F000DF91CF91089580E090E0892B29F00E944D
:10080000620381110E94000080E090E0892B49F092
:1008100080E090E0892B29F00E94000081110E9465
:10082000000080E090E0892B49F080E090E0892B87
:1008300029F00E94000081110E94000080E090E0F9
:10084000892B49F080E090E0892B29F00E9400007C
:1008500081110C9400000895FC013197E331F105FA
:1008600008F0FDC28827E85CFB4F8F4F0C946A1795
:1008700069047C04A404D604FC0417054B042E056B
:1008800049055C058405A105DD0521065806850698
:10089000AE06DD060A0781E0809378088093880819
:1008A000809379088093890880937A0880938A08D6
:1008B00080937B0880938B088093EB088093CB0810
:1008C0008093DB0880939B088093AB088093BB08E0
:1008D0000895E2E7F8E081E087838087709699E0E9
:1008E000E230F907C9F780938808809397088093CE
:1008F000E8088093EB080895E2E7F8E022ED38E09D
:1009000081E08783808770962E173F07D1F7809309
:10091000D7088093D8088093E7088093E8088093ED
:10092000E9088093EA088093EB088093C8088093D5
:100930009708809388088093C90880938B088093D8
:100940009B088093AB08089560919A0850919B088A
:100950004091CA089091CB08A7E7B8E0E7EBF8E030
:1009600025E030E081E08D931F968C931F979F9632
:100970008C939F978193878F87A72830310541F407
:1009800080938B088093DB0891E041E051E061E0C7
:100990002F5F3F4F2930310531F760939A0850930C
:1009A0009B084093CA089093CB08089581E08093F8
:1009B000780880937B088093880880938B088093C5
:1009C000980880939B088093A8088093AB08809335
:1009D000B8088093BA088093BB088093CA088093B4
:1009E000CB088093DA088093DB088093EA08809331
:1009F000EB088093B9080895E8E7F8E081E0819377
:100A0000878787AFDF01A159BF4F8C9398E0EC3700
:100A1000F907A9F78093A808809398088093DA08CB
:100A20008093CA088093CB088093DB080895E8E799
:100A3000F8E081E08193878787AFDF01A159BF4F3D
:100A40008C9398E0EC37F907A9F78093A808809376
:100A500098088093C8088093D808E4CFE8E7F8E0C6
:100A600081E08193878787AFDF01A159BF4F8C93C6
:100A700098E0EC37F907A9F78093A80880939808C5
:100A80008093C8088093D8088093CB088093DB08B4
:100A900056CFE8E7F8E081E08193878787AFDF01F1
:100AA000A159BF4F8C9398E0EC37F907A9F78093D1
:100AB000A80880939808E8CFE2E7F8E0DF0181E03A
:100AC00013968C93139714968C931497509699E0E1
:100AD000A230B907A9F78093840880939308809384
:100AE000E4088093E70881E082878587709698E024
:100AF000E23FF907C9F780937D0880937E088093D1
:100B0000ED088093EE080895E2E7F8E081E0838342
:100B1000848383878487709699E0E230F907B9F778
:100B200080938408809395088093E4088093E70875
:100B300080938C0880939B088093EC088093EF0847
:100B40000895E2E7F8E0DF0181E013968C931397B4
:100B500014968C931497509699E0A230B907A9F790
:100B600080938408809393088093E4088093E70837
:100B700081E084878587709698E0E23DF907C9F7A0
:100B80008093DC088093DD088093EC088093ED0867
:100B90008093EE088093EF088093F0088093CD084F
:100BA00080939C0880938D088093CE088093900852
:100BB0008093A0088093B0080895E2E7F8E081E010
:100BC00083838483709699E0E230F907C9F78093B4
:100BD0008408809393088093E4088093E7086091E9
:100BE0009F085091A0084091CF089091D008ECE761
:100BF000F8E0ACEBB8E025E030E081E08193878756
:100C000087A78D935F968C935F979F968C939F9702
:100C10002830310541F4809390088093E00891E0FA
:100C200041E051E061E02F5F3F4F2930310531F75E
:100C300060939F085093A0084093CF089093D008EA
:100C40000895E2E7F8E081E083838483709699E079
:100C5000E230F907C9F78093840880939308809362
:100C6000E4088093E70880937D0880938008809350
:100C70008D088093900880939D088093A0088093AE
:100C8000AD088093B0088093BD088093BF0880931F
:100C9000C0088093CF088093D0088093DF088093AA
:100CA000E0088093EF088093F0088093BE080895D1
:100CB000E2E7F8E081E083838483709699E0E23094
:100CC000F907C9F780938408809393088093E40818
:100CD0008093E708EDE7F8E081E08193878787AFAD
:100CE000DF01A159BF4F8C9398E0E138F907A9F7CC
:100CF0008093AD0880939D088093DF088093CF0890
:100D00008093D0088093E0080895E2E7F8E081E05E
:100D100083838483709699E0E230F907C9F7809362
:100D20008408809393088093E4088093E708EDE7B4
:100D3000F8E081E08193878787AFDF01A159BF4F3A
:100D40008C9398E0E138F907A9F78093AD08809378
:100D50009D088093CD088093DD08D2CFE2E7F8E0CC
:100D600081E083838483709699E0E230F907C9F7C4
:100D700080938408809393088093E4088093E70825
:100D800080937D0880938D0880937E0880938E08E1
:100D900080937F0880938F088093800880939008C9
:100DA0008093F0088093D0088093E0088093A00897
:100DB0008093B0088093C0080895E2E7F8E081E0EE
:100DC00083838483709699E0E230F907C9F78093B2
:100DD0008408809393088093E4088093E708EDE704
:100DE000F8E081E08193878787AFDF01A159BF4F8A
:100DF0008C9398E0E138F907A9F78093AD088093C8
:100E00009D088093CD088093DD088093D00880935F
:100E1000E008CECEE2E7F8E081E083838483709639
:100E200099E0E230F907C9F780938408809393082A
:100E30008093E4088093E708EDE7F8E081E0819390
:100E4000878787AFDF01A159BF4F8C9398E0E138C6
:100E5000F907A9F78093AD0880939D08D6CFE2E704
:100E6000F8E081E086838187709698E0E23FF90799
:100E7000C9F78093790880937A088093E908809372
:100E8000EA08089582E798E030E020E0FC01E20FF4
:100E9000F31F10822F5F3F4F20313105B9F7409685
:100EA00028E0823F920781F7089587E199E030E0DA
:100EB00020E0FC01E20FF31F10822F5F3F4F203133
:100EC0003105B9F7409629E08739920781F70895EF
:100ED000CF93DF93C82FDEE0D60F60E08D2F0E9406
:100EE0001E02CA5E61E08C2F0E941E0261E070E06B
:100EF00080E090E00E94B90261E08D2F0E941E0206
:100F000060E08C2FDF91CF910C941E02CF92DF9284
:100F1000EF92FF920F931F93CF93DF931F921F9235
:100F2000CDB7DEB769834A83880F991F0091A40A61
:100F30001091A50A000F111FEEE4FAE09F012E5454
:100F40003A402017310714F41192F8CF2981FC019F
:100F5000E25BF54F21838A81808360E08091A20A61
:100F60000E941E021016110604F501501109F80125
:100F7000E25BF54FE080D090A00AC0909E0A88E026
:100F8000F82E6E2D661F6627661F8C2D0E941E028E
:100F9000EE0C61E08D2D0E941E0260E08D2D0E94FE
:100FA0001E02FA94F110EDCFDDCF61E08091A20A2C
:100FB0000F900F90DF91CF911F910F91FF90EF90C5
:100FC000DF90CF900C941E02EF92FF921F93CF936D
:100FD000DF932091A40A3091A50A82179307B4F4F5
:100FE000EC0123E0880F991F2A95E1F79C01225A12
:100FF000354F790111E0F70111927F0140E0612F37
:10100000CE010E9486071F5F1930A9F7DF91CF91AB
:101010001F91FF90EF9008952091A40A3091A50AA6
:1010200012161306FCF488309105E1F06830710562
:10103000C9F020E830E002C0359527956A95E2F7BF
:10104000FC01E25BF54F5089442349F0252B208BAE
:1010500061E0680F408990E080E00C94860720955D
:101060002523F5CF0895AF92BF92CF92DF92EF92F2
:10107000FF920F931F93CF93DF9332E7E32E38E075
:10108000F32E10E000E0D0E0C0E041E0F701EC0F0B
:10109000FD1F8081813009F040E0BE01C8010E943F
:1010A0000C082196C830D10581F70F5F1F4F80E1F2
:1010B000E80EF11C0830110531F794E0E92EF12C0F
:1010C0002BE1A22E23E0B22E82E7C82E88E0D82E94
:1010D00010E000E0C8E0D0E0F601EC0FFD1F8081D9
:1010E000813001F5B801CE0108970E94680721966A
:1010F000C031D10589F70F5F1F4F80E1C80ED11CA9
:101100000830110539F781E0E81AF108E9F6DF91B6
:10111000CF911F910F91FF90EF90DF90CF90BF90F4
:10112000AF900895C5010197F1F7E1CF8F929F929B
:10113000AF92BF92CF92DF92EF92FF920F931F93E5
:10114000CF93DF9327E1E22E29E0F22E10E000E0BA
:10115000D0E0C0E041E0F701EC0FFD1F808181305D
:1011600009F040E0BE01C8010E940C082196C83079
:10117000D10581F70F5F1F4F80E1E80EF11C0830A9
:10118000110531F794E0E92EF12C87E1C82E89E0B2
:10119000D82E10E000E0C8E0D0E0F601EC0FFD1F13
:1011A0008081813011F5B801CE0108970E9468074F
:1011B0002196C031D10589F70F5F1F4F80E1C80E1E
:1011C000D11C0830110539F781E0E81AF108E9F679
:1011D000DF91CF911F910F91FF90EF90DF90CF9013
:1011E000BF90AF909F908F9008950E94940280903E
:1011F0006E0890906F08A0907008B0907108681900
:1012000079098A099B09623371058105910580F28C
:101210000E94940260936E0870936F088093700828
:1012200090937108C5CFFC0101900020E9F7319738
:10123000AF01481B590BBC0181EB99E00C94F802FB
:101240008F929F92AF92BF92CF92DF92EF92FF92D6
:101250000F931F93CF93DF93CDB7DEB7A1970FB650
:10126000F894DEBF0FBECDBF6C01990FEE08FF08EA
:10127000F7FE47C06DE281EB99E00E948E038C017E
:1012800022273327A9012C193D094E095F0919A20C
:10129000CE0181967C019AE0892E912CA12CB12C53
:1012A000CA01B901A50194010E948215605DF70190
:1012B00062937F01211531054105510589F790E0C1
:1012C00080E0309719F0CF010E941309080F191F11
:1012D0008FEA97E00E941309800F911FA1960FB625
:1012E000F894DEBF0FBECDBFDF91CF911F910F915C
:1012F000FF90EF90DF90CF90BF90AF909F908F9036
:101300000895A701960119A28E010F5D1F4F8AE073
:10131000C82ED12CE12CF12CCA01B901A7019601EC
:101320000E948215605DF80162938F0121153105DD
:101330004105510589F7309729F0CF010E94130923
:101340008C01C6CF10E000E0C3CFCF93DF930E94A3
:101350001309EC018FEA97E00E9413098C0F9D1F7F
:10136000DF91CF9108951F920F920FB60F92112423
:101370002F933F938F939F93AF93BF938091A9092E
:101380009091AA09A091AB09B091AC093091A8093C
:1013900023E0230F2D3758F50196A11DB11D209391
:1013A000A8098093A9099093AA09A093AB09B093C7
:1013B000AC098091AD099091AE09A091AF09B091AF
:1013C000B0090196A11DB11D8093AD099093AE099E
:1013D000A093AF09B093B009BF91AF919F918F9146
:1013E0003F912F910F900FBE0F901F90189526E8F8
:1013F000230F0296A11DB11DD2CF1F920F920FB6DF
:101400000F9211240BB60F922F933F934F935F933C
:101410006F937F938F939F93AF93BF93EF93FF93BC
:1014200081EB99E00E946C03FF91EF91BF91AF9126
:101430009F918F917F916F915F914F913F912F91EC
:101440000F900BBE0F900FBE0F901F9018951F921C
:101450000F920FB60F9211240BB60F922F938F930A
:101460009F93EF93FF93E091C109F091C2098081AE
:10147000E091C709F091C80982FD1DC0908180915B
:10148000CA098F5F8F732091CB09821741F0E091D9
:10149000CA09F0E0EF54F64F958F8093CA09FF9187
:1014A000EF919F918F912F910F900BBE0F900FBED8
:1014B0000F901F9018958081F2CFCF93DF931092F9
:1014C000B4091092B30988EE93E0A0E0B0E08093F5
:1014D000B5099093B609A093B709B093B80981EA0A
:1014E00097E09093B2098093B10985EC90E09093D6
:1014F000BE098093BD0984EC90E09093C00980936D
:10150000BF0980EC90E09093C2098093C10981ECFF
:1015100090E09093C4098093C30982EC90E090938B
:10152000C6098093C50986EC90E09093C809809322
:10153000C7091092CA091092CB091092CC091092D7
:10154000CD09C4E0D0E0D0939F0AC0939E0A82E008
:1015500090E09093A10A8093A00A83E090E090939A
:10156000A30A8093A20A81E090E09093A50A809359
:10157000A40A61E084E00E944C0261E08091A00A2C
:101580000E944C0261E08091A20A0E944C0261E03C
:101590008091A20A0E941E02D0939F0AC0939E0AC5
:1015A000EEE5FAE08EE99AE011928E179F07E1F7D7
:1015B000D0E0C0E08091A40A9091A50AC817D9078D
:1015C0003CF540E06FE0CE010E9486078091A40ABE
:1015D0009091A50AC817D9072CF447E06BE0CE011B
:1015E0000E94860740E069E0CE010E948607CE0196
:1015F0000E94E4078091A40A9091A50AC817D90710
:101600002CF440E06CE0CE010E9486072196D2CFF8
:10161000DF91CF910895CF93DF9300D000D0CDB765
:10162000DEB7789484B5826084BD84B5816084BD62
:1016300085B5826085BD85B5816085BD80916E0070
:10164000816080936E0010928100809181008260A1
:1016500080938100809181008160809381008091DE
:1016600080008160809380008091B10084608093CD
:10167000B1008091B00081608093B00080919100B2
:1016800082608093910080919100816080939100AD
:10169000809190008160809390008091A100826091
:1016A0008093A1008091A10081608093A10080912E
:1016B000A00081608093A0008091210182608093CE
:1016C000210180912101816080932101809120017D
:1016D00081608093200180917A00846080937A00F9
:1016E00080917A00826080937A0080917A00816094
:1016F00080937A0080917A00806880937A001092BB
:10170000C1006AE570E080E090E00E944715E0913A
:10171000C109F091C20982E08083E091BD09F09196
:10172000BE091082E091BF09F091C0098FEC80835F
:101730001092C909E091C509F091C60986E080833D
:10174000E091C309F091C409808180618083E091B8
:10175000C309F091C409808188608083E091C30946
:10176000F091C409808180688083E091C309F09181
:10177000C40980818F7D80838091A40A9091A50AFD
:101780001816190634F441E06CE090E080E00E9405
:1017900086078091A40A9091A50A1816190634F4B8
:1017A00048E06AE090E080E00E9486072EE029830E
:1017B00061E089810E944C0239813F5F3983363173
:1017C000B9F761E089810E944C0249814F5F4983EA
:1017D0004E31B9F75EE0598361E089810E941E02B3
:1017E00069816F5F69836631B9F760E089810E9422
:1017F0001E0279817F5F79837E31B9F760E08DE0E9
:101800000E944C0260E08DE00E944C0260E08CE09F
:101810000E944C0260E08BE00E944C0260E08AE093
:101820000E944C0260E086E30E944C0260E087E385
:101830000E944C0261E089E00E944C0286E30E9413
:101840007D0229E030E0DC010E94721728EE33E0CF
:1018500040E050E00E9450152F5F3F4F4F4F5F4FC9
:101860003093160920931509A8EE4A2EA3E05A2EAC
:10187000612C712C22242394312C0E94EC026B01E8
:101880007C01C092A409D092A509E092A609F09229
:10189000A7098091A2099091A309009709F03CC182
:1018A00090E080E00E94E4078CE00E94F501892B23
:1018B00061F080910A0291E0892780930A0264E630
:1018C00070E080E090E00E94B90280910002909167
:1018D000010220910A02222309F4D8C01816190621
:1018E00034F081EA90E090930102809300028091AD
:1018F00000029091010201979093010280930002EF
:101900001A821982E1EAEE2EF12CF1EA9F2EB12C17
:10191000A12C89819A81989E8001999E100D112495
:101920000B5E1D4FC0900002D0900102C6018A0DCF
:101930009B1DB7010E945617F801E80FF91F40815F
:10194000B50189819A810E940C089FEFA91AB90AF2
:10195000A8E0AA16B10431F7E981FA813196FA8339
:10196000E9833897A1F663E0862E912C71EAA72EC1
:10197000B12C1A82198208E010E041EA29813A81EB
:10198000429FC001439F900D1124BC016B5E7D4FAF
:101990007B01C601800F911FB5010E945617F70108
:1019A000E80FF91F8081882331F069817A81C801AD
:1019B00008970E9468070F5F1F4F0031110549F714
:1019C00089819A8101969A8389830897A1F691E08B
:1019D000891A910871F62091150930911609032E84
:1019E000000C440B550B2A50310941095109A9E05B
:1019F000B0E00E946F1526E831E040E050E00E9420
:101A000050152F5F3F4F4F4F5F4F19EE1203B0013C
:101A1000139F700D11246A517F4F072E000C880B05
:101A2000990B0E94B9028BE00E94F501892B49F0C5
:101A300082EB97E00E94A5090E94550781E0809300
:101A40000A028AE00E94F501892B41F08AEB97E0B7
:101A50000E94A5090E94550710920A028DE00E947B
:101A6000F501892B09F455C08091A109811110C09D
:101A700081E08093A1090E94EC0260939D0970931C
:101A80009E0980939F099093A00940C0019634CF8E
:101A90008091A4099091A509A091A609B091A709E8
:101AA00040919D0950919E0960919F097091A009F4
:101AB000841B950BA60BB70B88509740A109B10961
:101AC00081399140A105B10508F584EC97E00E94A9
:101AD000A50961E089E00E941E0264EF71E080E0E8
:101AE00090E00E94B90260E089E00E941E028DE051
:101AF0000E94F501892B51F43092A3092092A2098A
:101B00000E9455078FEC97E00E94A5090E94FB03F5
:101B1000B4CE1092A109FACF8130910509F04EC1DF
:101B200010929C0910929B098091080290910902E1
:101B3000909307028093060210929A0910929909D5
:101B40005DE1E52E57E0F52E10E000E01A821982E3
:101B500041E0E981FA81EE0DFF1D8081813009F0BD
:101B600040E069817A81C8010E940C0829813A818C
:101B70002F5F3F4F3A8329832830310549F70F5FA4
:101B80001F4F30E1E30EF11C08301105F9F644E077
:101B9000E42EF12C3DE1C32E37E0D32E10E000E01F
:101BA00048E050E05A834983E981FA81EC0DFD1D3C
:101BB0008081813031F4B80189819A8108970E942F
:101BC000680769817A816F5F7F4F7A8369836031AB
:101BD000710551F70F5F1F4F70E1C70ED11C083020
:101BE0001105F1F681E0E81AF108A1F68CE00E94F7
:101BF000F501892B09F4ABC088EE97E00E94A50996
:101C00000E9455070091F6081091F708063011055B
:101C100014F005E010E0A090F408B090F508F5018C
:101C2000D12CC12C90E080E0801791070CF456C0B5
:101C3000D092F308C092F2081E821D820D2C000C77
:101C4000EE08FF0899249394AD81BE81A017B107D7
:101C50000CF06AC0F501619171915F01072E000CD3
:101C6000880B990B0E945D1669837A838B839C8312
:101C7000C701B6010E945D169B01AC0169817A81A2
:101C80008B819C810E94B31520E030E048EC52E447
:101C90000E94E9160E94251623E0660F771F881F11
:101CA000991F2A95D1F724E630E040E050E00E94E9
:101CB0005015E8E8F9E087E090E048E050E0421B8A
:101CC000530B9A01821793074CF16D817E81672B2C
:101CD00059F49082918201977097F4CF21913191BC
:101CE000C20ED31E0196A0CFAD81BE81119719F40B
:101CF00093829482F0CF4D815E814230510519F478
:101D000096829782E8CF6D817E816330710519F4E8
:101D100091869286E0CF94869586DDCF8D819E81D7
:101D200001969E838D8390CF0E94960884E090E078
:101D30009093A3098093A20990E080E00E94E407B9
:101D400064E670E080E090E00E94B902DFCE8DE0B2
:101D50000E94F501892B49F085EF97E00E94A509C3
:101D60001092A3091092A209EBCF8BE00E94F5011B
:101D7000892B79F085E098E00E94A50990E080E049
:101D80000E94E40785E090E09093A3098093A20964
:101D9000D7CF8AE00E94F501892B09F4B7CE83E4FE
:101DA00098E00E94A50990E080E00E94E407A2E08C
:101DB000B0E0B093A309A093A209C2CF82309105ED
:101DC00009F043C480919B0990919C09059769F49F
:101DD00080910602909107020196909307028093EA
:101DE000060210929C0910929B0980910602909124
:101DF0000702892B41F00091040210910502013184
:101E000011050CF497C00E94550783E198E00E94E9
:101E1000A50910921409109213093092050220921C
:101E2000040210921209109211098FE090E0909331
:101E30000302809302021092100910920F0910926F
:101E40000B0910920C0910920D0910920E091092B4
:101E50000709109208091092090910920A09809145
:101E60000802909109029093070280930602109253
:101E70000609109205091092A3091092A20982E99D
:101E800090E09093010280930002E0909909F09015
:101E90009A090091F6081091F708F8013196F0932D
:101EA000F708E093F608EE0FFF1FFA83E983BF01FE
:101EB0008091F4089091F5080E948D179093F50891
:101EC0008093F4080097C1F029813A8122503109AA
:101ED000280F391F3A832983101611068CF4A98123
:101EE000BA813E912E91BA83A98313963C932E9387
:101EF000129701501109F0CF81E090E00E949C19E7
:101F0000FC01F182E0828DE00E94F501892B09F449
:101F1000FDCD80910602909107020E942C04E3E01F
:101F2000F0E0F093A309E093A20968E572E080E095
:101F300090E00ACF8091130990911409E7E8F9E045
:101F4000892B09F00BC2F12CE12CDD24D394E0168F
:101F5000F106ACF50E94F81420E130E040E050E0DA
:101F60000E9450159B01295E364F3A832983F9015F
:101F7000E059FF4F80818111EDCFD0820E94F8148B
:101F800024E030E040E050E00E9450156F5F7F4F4A
:101F90008F4F9F4F90E080E049815A814051510915
:101FA0005A8349838617970734F4FA01E058FF4FA4
:101FB000D0820196F1CF5FEFE51AF50AC8CF809184
:101FC0000402909105020196909305028093040209
:101FD00080911309909114090196909314098093AC
:101FE00013098CE00E94F501892B09F470C081E08F
:101FF0008093040980910F0990911009909303092F
:102000008093020980910009909101099093FF0843
:102010008093FE088957964FDC018C91813009F03E
:1020200050C080919B0990919C09019690939C09C6
:1020300080939B092091990930919A092F5F3F4F16
:1020400030939A0920939909059769F480910602C3
:1020500090910702019690930702809306021092D6
:102060009C0910929B098091060290910702892B8E
:1020700061F41092A3091092A20982E990E0909372
:102080000102809300020E9455078FEA97E00E94A8
:10209000130980E298E00E94A50980919B09909124
:1020A0009C090E94200986E298E00E94A50980917F
:1020B0000602909107020E9420098FEA97E00E9491
:1020C000130968EC70E080E090E00E94B902809112
:1020D0000409882309F452C0E0910209F091030930
:1020E000E830F1050CF061C19F012F5F3F4F3A834B
:1020F00029830091FE081091FF0884E0EE0FFF1F76
:102100008A95E1F7E95EF64FE00FF11F10820E9419
:10211000EC02C090FA08D090FB08E090FC08F09028
:10212000FD086C197D098E099F096E3171058105C5
:10213000910580F00E94EC026093FA087093FB080E
:102140008093FC089093FD0849815A8150930309BC
:10215000409302098091020990910309089774F451
:1021600069817A81B4E0660F771FBA95E1F7695EFD
:10217000764F600F711F81E0DB018C938AE00E9433
:10218000F501892B09F41BC130920609209205093B
:102190008091110990911209909303028093020299
:1021A00080910F0990911009E0910009F0910109C7
:1021B000A4E0880F991FAA95E1F7895D964FE80F73
:1021C000F91F1082118280910509909106098130D2
:1021D000910509F067C140910F09509110092091B4
:1021E000000930910109CA0174E0880F991F7A959E
:1021F000E1F7895D964FFC01E20FF31FDF011397B2
:102200006C91613039F53093F9082093F8082F5F0D
:102210003F4FDA0164E0AA0FBB1F6A95E1F7A95EA0
:10222000B64FA20FB31F1C92820F931FDC011C92AA
:1022300010823197108280910602909107020197D7
:10224000909307028093060242505109509310095F
:1022500040930F09C0900202D0900302D7FC07C13F
:10226000E0910F09F0911009FA83E9837F01B4E04E
:10227000EE0CFF1CBA95E1F7F701E95EF64FEC0DA5
:10228000FD1D108209811A810F5F1F4F84E0000F2E
:10229000111F8A95E1F7C801895E964FFC01EC0D8C
:1022A000FD1D108221E0C21AD1088C0D9D1DDC019C
:1022B0001C92329710820E94EC0280900709909045
:1022C0000809A0900909B0900A09AB01BC0148199E
:1022D00059096A097B098091150990911609092EFF
:1022E000000CAA0BBB0B481759076A077B0770F055
:1022F0000E94EC0260930709709308098093090912
:1023000090930A09D0920302C092020280910202C5
:1023100090910302181619060CF085C09C012150FB
:1023200031093093010920930009F701E95EF64F66
:10233000E80FF91F41E04083095E164FF801E80FEE
:10234000F91F4083020F131FD8014C93019709F422
:102350005FC0329740830E949608D5CD819181302D
:1023600009F43FCE69E0E739F607C1F71092140986
:10237000109213090E945507C8010E942C0423E201
:1023800030E03A8329830E94330889819A8101973A
:102390009A838983892BB9F768EE73E080E090E037
:1023A0000E94B9020E9442071CCE389709F0E6CE7F
:1023B000109203091092020910920409DFCE8BE0FB
:1023C0000E94F501892B09F4FECE109206091092A5
:1023D0000509809102029091030290931209809363
:1023E000110980910F0990911009209100093091F5
:1023F0000109E4E0880F991FEA95E1F7895D964F9E
:10240000820F931FFC0110820197DC011C92DBCE2E
:10241000E981FA81A4E0EE0FFF1FAA95E1F7E95CDC
:10242000F64F478798CF892B09F095CF8FE090E042
:102430009093010980930009F701E95EF64F81E06E
:102440008083F801E95EF64F808329813A81E4E0D8
:10245000220F331FEA95E1F7295C364F3A8329832F
:10246000D9011F968C931F971E968C9374CFCD2005
:10247000C09409F048CD8FE090E0909303028093E0
:10248000020280910F099091100901969093100912
:1024900080930F09079709F036CD1092100910921A
:1024A0000F0931CD892B09F02ECD40910F095091A4
:1024B00010092091000930910109CA0174E0880FC8
:1024C000991F7A95E1F7895D964FDC01A20FB31F42
:1024D00013966C911397613039F53093F908209376
:1024E000F80821503109FA0164E0EE0FFF1F6A95E8
:1024F000E1F7E95EF64FE20FF31F1082820F931FA0
:10250000FC0110821C9211961C92809106029091FF
:1025100007020197909307028093060242505109E7
:102520005093100940930F0900911109109112095D
:10253000003111050CF080C020910F093091100975
:10254000790184E0EE0CFF1C8A95E1F7F701E95E62
:10255000F64FE00FF11F10822F5F3F4F94E0220FE4
:10256000331F9A95E1F73A832983C901895E964F13
:10257000FC01E00FF11F10820F5F1F4F800F911FB2
:10258000DC011C9212820E94EC0280900B09909058
:102590000C09A0900D09B0900E09AB01BC014819BF
:1025A00059096A097B098091150990911609092E2C
:1025B000000CAA0BBB0B481759076A077B0770F082
:1025C0000E94EC0260930B0970930C0980930D0933
:1025D00090930E091093120900931109809111092B
:1025E000909112099C012F5F3F4F8F309105E4F4C9
:1025F0003093010920930009F701E95EF64FE80FD7
:10260000F91F41E04083E981FA81E95EF64FFA83E0
:10261000E983E80FF91F408369817A81620F731F94
:10262000DB014C93428397CE8F30910529F71092AE
:10263000010910920009E0CF0031110509F063CCC7
:1026400010921209109211091CCF8330910509F0E4
:102650007EC00E9455070E9433088DE00E94F5015C
:10266000892B09F456CA8091A109882309F400CA6C
:1026700080919D0990919E09A0919F09B091A00918
:10268000C81AD90AEA0AFB0AD701C601885097403E
:10269000A109B109853F9140A105B10538F58DE249
:1026A00098E00E94A50961E089E00E941E0262ECA8
:1026B00071E080E090E00E94B90260E089E00E9451
:1026C0001E028DE00E94F501892B81F40E944207D1
:1026D00090E080E00E94E40722E030E03093A3091C
:1026E0002093A20988E398E00E94A50930EFC31A5D
:1026F0003AE0D30AE108F10845EFC41641E0D406F8
:10270000E104F10408F002CA89E498E00E94A509F6
:1027100061E089E00E941E0264EF71E080E090E0D9
:102720000E94B90260E089E00E941E028DE00E94D2
:10273000F501892B09F0EAC90E94420790E080E088
:102740000E94E4073092A3092092A209DFC98430D5
:10275000910509F046C08DE00E94F501892BE1F159
:102760008091A109882309F483C980919D099091E2
:102770009E09A0919F09B091A009C81AD90AEA0A36
:10278000FB0A50EFC51A5AE0D50AE108F10861E9E1
:10279000C61661E0D606E104F10408F0B7C984E585
:1027A00098E00E94A50961E089E00E941E0264EFA2
:1027B00071E080E090E00E94B90260E089E00E9450
:1027C0001E028DE00E94F501892B09F09FC90E942D
:1027D00042070E945507B6CF1092A1090E949608A1
:1027E00095C9059709F092C9809197099091980928
:1027F000E7E1F9E09F0127513940281739078CF0AC
:10280000209106023091070287E699E09A83898336
:10281000FC0190E080E08217930734F41192019656
:10282000FACF10A23196E6CF86E30E947D0226E819
:1028300031E0DC010E947217A30192010E94501541
:1028400049015A017A0169019AE0C90ED11CE11CC3
:10285000F11CD0921609C092150987E30E947D02EF
:1028600027E030E0DC010E947217A30192010E9470
:102870005015DA01C9010396A11DB11D8C01909379
:102880000702809306029093090280930802AFE04A
:10289000B0E0A50194010E946F1526E831E040E008
:1028A00050E00E945015BA01A9014F5F5F4F6F4F72
:1028B0007F4FCA015093980940939709E7E1F9E0E7
:1028C00041E09F0127513940281739071CF440A3E4
:1028D0003196F7CF90E080E021E0801791073CF43B
:1028E000A981BA812D93BA83A9830196F6CFC60137
:1028F0000E94200980910602909107020E942009FF
:102900000E9496088DE00E94F501892B09F401C907
:102910008091A109882309F4ABC88091A409909102
:10292000A509A091A609B091A70940919D095091D0
:102930009E0960919F097091A009841B950BA60BBD
:10294000B70B805F9A40A109B10981399140A10577
:10295000B10508F0DBC823CF8F929F92AF92BF9250
:10296000CF92DF92EF92FF92CF93DF93EC016881D9
:1029700079818A819B81611571058105910521F419
:1029800064E279ED8BE597E02DE133EF41E050E033
:102990000E94501549015A019B01AC01A7EAB1E41C
:1029A0000E946F156B017C01ACEEB4EFA5019401A0
:1029B0000E947D15C60ED71EE81EF91EF7FE06C042
:1029C00081E0C81AD108E10880E8F80AC882D982F3
:1029D000EA82FB82C701B6019F77DF91CF91FF901A
:1029E000EF90DF90CF90BF90AF909F908F90089521
:1029F0008F929F92AF92BF92CF92DF92EF92FF920F
:102A000060910B0270910C0280910D0290910E0268
:102A1000611571058105910521F464E279ED8BE57D
:102A200097E02DE133EF41E050E00E94501549015D
:102A30005A019B01AC01A7EAB1E40E946F156B013A
:102A40007C01ACEEB4EFA50194010E947D15C60E89
:102A5000D71EE81EF91EF7FE06C081E0C81AD1088D
:102A6000E10880E8F80AC0920B02D0920C02E092D2
:102A70000D02F0920E02C701B6019F77FF90EF9012
:102A8000DF90CF90BF90AF909F908F90089560930C
:102A90000B0270930C0280930D0290930E02089526
:102AA000052E97FB1EF400940E94671557FD07D072
:102AB0000E94821507FC03D04EF40C9467155095C4
:102AC0004095309521953F4F4F4F5F4F089590951A
:102AD0008095709561957F4F8F4F9F4F08950E940D
:102AE000A415A59F900DB49F900DA49F800D911DDE
:102AF00011240895B7FF0C946F150E946F15821B67
:102B0000930B0895A1E21A2EAA1BBB1BFD010DC059
:102B1000AA1FBB1FEE1FFF1FA217B307E407F5078D
:102B200020F0A21BB30BE40BF50B661F771F881F69
:102B3000991F1A9469F760957095809590959B01FF
:102B4000AC01BD01CF010895A29FB001B39FC001A8
:102B5000A39F700D811D1124911DB29F700D811DC9
:102B60001124911D08950E94C7150C94AF160E9460
:102B7000A81658F00E94A11640F029F45F3F29F0F2
:102B80000C94981651110C94E3160C949E160E9406
:102B9000C01668F39923B1F3552391F3951B550B98
:102BA000BB27AA2762177307840738F09F5F5F4F20
:102BB000220F331F441FAA1FA9F335D00E2E3AF05F
:102BC000E0E832D091505040E695001CCAF72BD077
:102BD000FE2F29D0660F771F881FBB1F26173707C8
:102BE0004807AB07B0E809F0BB0B802DBF01FF27FA
:102BF00093585F4F3AF09E3F510578F00C94981629
:102C00000C94E3165F3FE4F3983ED4F386957795F2
:102C10006795B795F7959F5FC9F7880F911D9695B2
:102C2000879597F90895E1E0660F771F881FBB1F0E
:102C3000621773078407BA0720F0621B730B840BBB
:102C4000BA0BEE1F88F7E09508950E942C16689441
:102C5000B1110C94E31608950E94C81688F09F578E
:102C600098F0B92F9927B751B0F0E1F0660F771FB0
:102C7000881F991F1AF0BA95C9F714C0B13091F0A6
:102C80000E94E216B1E008950C94E216672F782FA7
:102C90008827B85F39F0B93FCCF38695779567956B
:102CA000B395D9F73EF490958095709561957F4FD7
:102CB0008F4F9F4F0895E89409C097FB3EF490957D
:102CC0008095709561957F4F8F4F9F4F9923A9F005
:102CD000F92F96E9BB279395F69587957795679594
:102CE000B795F111F8CFFAF4BB0F11F460FF1BC0D8
:102CF0006F5F7F4F8F4F9F4F16C0882311F096E96B
:102D000011C0772321F09EE8872F762F05C0662318
:102D100071F096E8862F70E060E02AF09A95660FD1
:102D2000771F881FDAF7880F9695879597F908958A
:102D300097F99F6780E870E060E008959FEF80EC6E
:102D4000089500240A941616170618060906089511
:102D500000240A9412161306140605060895092E77
:102D60000394000C11F4882352F0BB0F40F4BF2BE6
:102D700011F460FF04C06F5F7F4F8F4F9F4F089526
:102D800057FD9058440F551F59F05F3F71F047951C
:102D9000880F97FB991F61F09F3F79F08795089501
:102DA000121613061406551FF2CF4695F1DF08C020
:102DB000161617061806991FF1CF8695710561053D
:102DC00008940895E894BB2766277727CB0197F9E5
:102DD00008950E94FC160C94AF160E94A11638F0BC
:102DE0000E94A81620F0952311F00C9498160C94CC
:102DF0009E1611240C94E3160E94C01670F3959F42
:102E0000C1F3950F50E0551F629FF001729FBB27E1
:102E1000F00DB11D639FAA27F00DB11DAA1F649F7D
:102E20006627B00DA11D661F829F2227B00DA11D30
:102E3000621F739FB00DA11D621F839FA00D611DB6
:102E4000221F749F3327A00D611D231F849F600DD7
:102E5000211D822F762F6A2F11249F5750409AF000
:102E6000F1F088234AF0EE0FFF1FBB1F661F771F8C
:102E7000881F91505040A9F79E3F510580F00C9457
:102E800098160C94E3165F3FE4F3983ED4F38695CE
:102E900077956795B795F795E7959F5FC1F7FE2BF7
:102EA000880F911D9695879597F9089597FB072EA2
:102EB00016F4009407D077FD09D00E94791707FC1B
:102EC00005D03EF4909581959F4F0895709561953A
:102ED0007F4F0895EE0FFF1F881F8BBF0790F6915D
:102EE000E02D19940E94A415B7FF0895821B930B3F
:102EF0000895AA1BBB1B51E107C0AA1FBB1FA61741
:102F0000B70710F0A61BB70B881F991F5A95A9F792
:102F100080959095BC01CD0108954F925F926F927C
:102F20007F928F929F92AF92BF92CF92DF92EF9259
:102F3000FF920F931F93CF93DF938C01009799F427
:102F4000CB01DF91CF911F910F91FF90EF90DF9018
:102F5000CF90BF90AF909F908F907F906F905F9039
:102F60004F900C947718FC01E60FF71F9C0122503C
:102F70003109E217F30708F4AEC0D901CD91DC9115
:102F80001197C617D70720F1C530D10578F0CE01CB
:102F900004978617970750F0C61BD70B2297C1934B
:102FA000D1936D937C93CF010E941319C801DF91D7
:102FB000CF911F910F91FF90EF90DF90CF90BF9036
:102FC000AF909F908F907F906F905F904F900895FB
:102FD0005B01AC1ABD0A4C018C0E9D1EA091A80A83
:102FE000B091A90A512C412CF12CE12C109731F50C
:102FF0008091A60A9091A70A8815990509F05CC0EE
:103000004616570608F058C080910F0290911002A2
:10301000009741F48DB79EB740911302509114026E
:10302000841B950BE817F90708F055C0F093A70A21
:10303000E093A60AF90171836083B8CF8D919C91CA
:10304000119712966C90129713967C901397A8156F
:10305000B90559F56C0142E0C40ED11CCA14DB0459
:1030600020F1AC014A195B09DA011296159780F03C
:103070006282738251834083D9016D937C93E11402
:10308000F10471F0D7011396FC93EE9312978ECF53
:1030900022968C0F9D1FF90191838083F301EFCF5E
:1030A000F093A90AE093A80A81CF4816590608F4BC
:1030B0002C017D01D3019ACFCB010E9477187C01AE
:1030C000009749F0AE01B8010E946E18C8010E9435
:1030D000131987016BCF10E000E068CFFB01DC0122
:1030E00002C001900D9241505040D8F708950F93BF
:1030F0001F93CF93DF938230910510F482E090E02C
:10310000E091A80AF091A90A30E020E0B0E0A0E048
:10311000309799F42115310509F44AC0281B390B61
:1031200024303105D8F58A819B816115710589F1BB
:10313000FB0193838283FE0111C040815181028192
:10314000138148175907E0F04817590799F4109769
:1031500061F012960C93129713961C933296CF013E
:10316000DF91CF911F910F9108950093A80A1093BA
:10317000A90AF4CF2115310551F04217530738F051
:10318000A901DB019A01BD01DF01F801C1CFEF0107
:10319000F9CF9093A90A8093A80ACDCFFE01E20F40
:1031A000F31F819391932250310939832883D7CF1C
:1031B0002091A60A3091A70A232B41F420911102F5
:1031C000309112023093A70A2093A60A20910F0291
:1031D000309110022115310541F42DB73EB74091D1
:1031E000130250911402241B350BE091A60AF091B2
:1031F000A70AE217F307A0F42E1B3F0B2817390785
:1032000078F0AC014E5F5F4F2417350748F04E0F42
:103210005F1F5093A70A4093A60A819391939FCF73
:10322000F0E0E0E09CCFCF93DF930097E9F0FC0162
:10323000329713821282A091A80AB091A90AED01D7
:1032400030E020E01097A1F420813181820F931F9C
:103250002091A60A3091A70A2817390709F061C002
:10326000F093A70AE093A60ADF91CF910895EA01AF
:10327000CE17DF07E8F54A815B819E0141155105B4
:10328000B1F7E901FB83EA8349915991C40FD51F36
:10329000EC17FD0761F4808191810296840F951FE0
:1032A000E90199838883828193819B838A83F0E0FB
:1032B000E0E012968D919C9113970097B9F52D91AE
:1032C0003C911197CD010296820F931F2091A60A7F
:1032D0003091A70A2817390739F6309751F510921F
:1032E000A90A1092A80AB093A70AA093A60ABCCF75
:1032F000D383C28340815181840F951FC817D9079A
:1033000061F44E5F5F4F88819981480F591F518347
:1033100040838A819B81938382832115310509F043
:10332000B0CFF093A90AE093A80A9ECFFD01DC017B
:0C333000C0CF13821282D7CFF894FFCFD9
:10333C0092000F00010003000300010100000000D7
:10334C0000AA0A800000000000000000000101013A
:10335C00010100000000010100000000000101005B
:10336C000000000000000000000000000000000051
:10337C00000101010100000000000000000000013C
:10338C000101010000000101010100000001010127
:10339C00010000000101010100000000000101001A
:1033AC00000000000000000101010101000001010A
:1033BC0000000101000101010101000000010101F7
:1033CC0001000000000000000000010101010101EA
:1033DC0000010100000000000000000000000000DF
:1033EC0000000000000000000000000000000101CF
:1033FC0000000101000001010101000000000101B9
:10340C0000000000000000000000000000000000B0
:10341C00000001010101000000000000000000019B
:10342C000101010101000101000001010001010184
:10343C000101010001010101010100000001010075
:10344C00000000000000000001010000010100016B
:10345C000100000101000101000001010001010156
:10346C000101010000000000000000010101010148
:10347C00010000010100000000000000000000003D
:10348C00000000000000000001010101010000012A
:10349C000100000101000101000001010000010117
:1034AC00010000000000000000000001010000010C
:1034BC0001000000000101000000000000000000FD
:1034CC0001010000010100010100000101000101E6
:1034DC0000000101000000000001010000010100DA
:1034EC0000000001010101010001010000010100C7
:1034FC0001010000010100010100000101000101B6
:10350C0000000101000000000000000000000101AB
:10351C00000000000001010000000000000000009D
:10352C00000000000000000000010100000101008B
:10353C000101010101000001010000010100000076
:10354C000101000000010101010101000101000065
:10355C000101000000000101000001010101010155
:10356C000000000000010100010100010101000048
:10357C000000000101000000010101000001010038
:10358C000000000101000001010001010101010026
:10359C000001010000010100010100000101000116
:1035AC00010000010100000000000000000000010B
:1035BC0001000000000000010100000000000000FC
:1035CC0000000000000000000000010100000101EB
:1035DC0000010101010000000101010101010000D5
:1035EC0000010100000001010101010100010100C5
:1035FC0000010100000000010100000101010101B6
:10360C0001000000000101000001010100010100A6
:10361C000000000101000000000101010000010197
:10362C000000000001010000010100010101010086
:10363C000000010100000101000101010101000075
:10364C00010100000101000000000000000000006A
:10365C00010100000000000001010000000000005A
:10366C000000000000000000000000010101010149
:10367C000000010100010100000101000001010036
:10368C00000001010000000000000000000001012A
:10369C000000010100010100010100000000000018
:1036AC000000000000010100000001010000010108
:1036BC0000000001010000000000000001010000FA
:1036CC0001010000000001010101010001010001E4
:1036DC0001000001010000010100010100000000D7
:1036EC0000010100000101000000000000000000CA
:1036FC0000010100000000000101000000000000BA
:10370C0000000000000000000000000001010000AB
:10371C000000000101000001010001010000010195
:10372C000001010101010100000000000000000087
:10373C000101010100000101010101000000000074
:10374C000000000000010101010100010100000165
:10375C000100000101010101000101010101010051
:10376C000000010100000000000001010001010047
:10377C000001010001010101010100010100000033
:10378C000000010101010101000000000000000027
:10379C000101010101010000010100000000000015
:1037AC00000000000000000000000000000101000B
:1037BC0000000000010100000101000101000001F6
:1037CC0001000101010101010000000000000000E6
:1037DC0000000101000000000101010000000000D8
:1037EC0000000000000101010101010000010101C4
:1037FC0001000001010101010100000101010100B2
:10380C0000000000010100000101010100000101A4
:10381C000000010100000101010100000101000094
:10382C000000000001010101000000000000000088
:10383C000001010101010100010100000000000074
:10384C00000000000000000000000000000000006C
:10385C000000010101010101000000000000000056
:10386C000000010101010101000000000000010045
:10387C000000010001010101000001010000010133
:10388C000100010001010001000100000000000026
:10389C000000010000010001000100000000000117
:1038AC000000010000000001000001010000000008
:1038BC0000000101010101010000000000000000F6
:1038CC0000000101010101010000000000000000E6
:1038DC00008E03F8022503DB035603340348030D63
:1038EC000A004465726563686100497A717569659F
:1038FC007264610050726573696F6E61646F00432E
:10390C00616D62696120616C206D656E75207072ED
:10391C00696E636970616C0045737461646973747A
:10392C0069636173004D656E73616A6520496E69E8
:10393C006369616C00436F6E666967757261636978
:10394C006F6E00506572646973746521203A2800AB
:10395C00446573743A0056696461733A003220739B
:10396C006567756E646F730052656772657361206D
:10397C00616C204A7565676F003320736567756EDF
:10398C00646F73005265677265736120616C204DC2
:0E399C00656E75205072696E636970616C0013
:00000001FF
